:1000000072C00000A0C000009EC000009CC00000A4
:100010009AC0000098C0000096C0000094C0000084
:1000200092C0000090C000008EC000008CC0000094
:100030008AC0000088C0000086C0000084C00000A4
:1000400082C0000080C000007EC000007CC00000B4
:100050007AC0000078C0000076C00000DDC5000056
:1000600072C000006FC30000A3C300006CC000009A
:100070006AC0000068C0000066C0000064C00000E4
:1000800062C0000060C000005EC000005CC00000F4
:100090005AC0000058C0000056C0000054C0000004
:1000A00052C0000050C000004EC000004CC0000014
:1000B0004AC0000048C0000046C0000044C0000024
:1000C00042C0000040C000003EC000003CC0000034
:1000D0003AC0000038C0000036C0000034C0000044
:1000E00032C000000A0411241FBECFEFD1E2DEBFF0
:1000F000CDBF00E00CBF12E0A0E0B2E0EEE4F1E121
:1001000000E00BBF02C007900D92AE35B107D9F7E2
:1001100023E0AEE5B2E001C01D92A430B207E1F7E2
:1001200010E0C3E7D0E000E006C021970109802F6E
:10013000FE010E949D08C237D10780E00807A9F799
:1001400097D30C94A5085CCF26E040E052EC61E028
:1001500070E08EE592E093C268E072E08EE592E096
:10016000D0D3609107028EE592E0CCD363E172E0D8
:100170008EE592E0C6D3609107028EE592E012D23E
:1001800063E172E08EE592E0BCD36091070270E01B
:100190004AE050E08EE592E062D48EE592E0B9D379
:1001A00065E172E08EE592E0ACD34AE050E0609108
:1001B00006028EE592E003D463E172E08EE592E000
:1001C000A0D3609106028EE592E0ECD163E172E08B
:1001D0008EE592E096D34AE050E0609106028EE50B
:1001E00092E0EDD38EE592E094D362E272E08EE588
:1001F00092E087D360910402709105024AE050E0DA
:100200008EE592E02CD463E172E08EE592E079D342
:1002100060910402709105024AE050E08EE592E0A0
:100220001ED463E172E08EE592E06BD3609104022C
:100230007091050240E150E08EE592E010D463E158
:1002400072E08EE592E05DD3609104027091050248
:1002500048E050E08EE592E002D463E172E08EE582
:1002600092E04FD3609104027091050242E050E0A9
:100270008EE592E0F4D38EE592E04BD36FE272E02C
:100280008EE592E03ED340910002509101026091D0
:1002900002027091030222E030E08EE592E0ACD4DD
:1002A0008EE592E036D368EE73E080E090E023D5EF
:1002B000809107028F5F80930702809106028F5F13
:1002C000809306028091040290910502019690931A
:1002D00005028093040220E030E040E85FE3609193
:1002E00000027091010280910202909103020AD0F3
:1002F00060930002709301028093020290930302C4
:1003000008955058BB27AA270ED077C068D030F088
:100310006DD020F031F49F3F11F41EF45DC00EF457
:10032000E095E7FB53C0E92F79D080F3BA17620755
:1003300073078407950718F071F49EF591C00EF4C9
:10034000E0950B2EBA2FA02D0B01B90190010C01E5
:10035000CA01A0011124FF27591B99F0593F50F4FD
:10036000503E68F11A16F040A22F232F342F442755
:10037000585FF3CF469537952795A795F04053954D
:10038000C9F77EF41F16BA0B620B730B840BBAF01D
:100390009150A1F0FF0FBB1F661F771F881FC2F788
:1003A0000EC0BA0F621F731F841F48F4879577959C
:1003B0006795B795F7959E3F08F0B3CF9395880F53
:1003C00008F09927EE0F97958795089597F99F67FD
:1003D00080E870E060E008959FEF80EC08950024CD
:1003E0000A941616170618060906089500240A949A
:1003F00012161306140605060895092E0394000C20
:1004000011F4882352F0BB0F40F4BF2B11F460FFAE
:1004100004C06F5F7F4F8F4F9F4F089557FD9058D7
:10042000440F551F59F05F3F71F04795880F97FBB8
:10043000991F61F09F3F79F0879508951216130672
:100440001406551FF2CF4695F1DF08C016161706A1
:100450001806991FF1CF86957105610508940895D6
:10046000E894BB2766277727CB0197F90895FC010D
:10047000918D228D892F90E0805C9F4F821B910986
:100480008F7399270895FC01918D828D981731F013
:10049000828DE80FF11D858D90E008958FEF9FEF1D
:1004A0000895FC01918D828D981761F0828DDF0196
:1004B000A80FB11D5D968C91928D9F5F9F73928F57
:1004C00090E008958FEF9FEF0895FC01538D448DC8
:1004D000252F30E0842F90E0821B930B541710F0EF
:1004E000CF9608950197089581E094E0892B39F023
:1004F00080E090E0892B19F084D1811125C080E043
:1005000090E0892B41F080E090E0892B21F00E945F
:10051000000081111CC080E090E0892B41F080E058
:1005200090E0892B21F00E940000811113C080E02F
:1005300090E0892BA1F080E090E0892B81F00E946F
:10054000000081110AC008950E940000D8CF0E94C7
:100550000000E1CF0E940000EACF0C940000089553
:10056000FC01848DDF01A80FB11DA35ABF4F2C9150
:10057000848D90E001968F739927848FA689B7891F
:100580002C93A089B1898C91837080648C93938D16
:10059000848D981306C00288F389E02D80818F7DB9
:1005A00080830895EF92FF920F931F93CF93DF9371
:1005B000EC0181E0888F9B8D8C8D981305C0E889B4
:1005C000F989808185FD25C0F62E0B8D10E00F5F27
:1005D0001F4F0F731127E02E8C8DE8120BC00FB642
:1005E00007FCFACFE889F989808185FFF5CFCE0134
:1005F000B7DFF2CF8B8DFE01E80FF11DE35AFF4FFD
:10060000F0829FB7F8940B8FEA89FB898081806222
:100610000AC09FB7F894EE89FF896083E889F98959
:1006200080818370806480839FBF81E090E0DF9150
:10063000CF911F910F91FF90EF900895CF93DF938B
:10064000EC01888D8823C1F0EA89FB89808185FDD2
:1006500005C0A889B9898C9186FD0EC00FB607FC2C
:10066000F5CF808185FFF2CFA889B9898C9185FF6C
:10067000EDCFCE0175DFE8CFDF91CF910895CF9216
:10068000DF92EF92FF921F93CF93DF93EC016A0109
:100690007B01122FE889F98982E080834115514E50
:1006A00061057105A9F060E079E08DE390E0A701B4
:1006B000960121D5DA01C9010197A109B109B695C1
:1006C000A795979587959C01211580E13807A0F0A3
:1006D000E889F989108260E874E88EE190E0A7016A
:1006E000960109D5DA01C9010197A109B109B695A9
:1006F000A795979587959C01EC85FD853083EE85C0
:10070000FF852083188EEC89FD891083EA89FB8997
:10071000808180618083EA89FB8980818860808311
:10072000EA89FB89808180688083EA89FB898081EE
:100730008F7D8083DF91CF911F91FF90EF90DF90AD
:10074000CF9008951F920F920FB60F9211240BB6FF
:100750000F922F938F939F93EF93FF93E0916E02ED
:10076000F0916F028081E0917402F091750282FD38
:1007700012C09081809177028F5F8F7320917802F1
:10078000821751F0E0917702F0E0E25AFD4F958F29
:100790008093770201C08081FF91EF919F918F91AB
:1007A0002F910F900BBE0F900FBE0F901F901895BA
:1007B0001F920F920FB60F9211240BB60F922F9328
:1007C0003F934F935F936F937F938F939F93AF93D9
:1007D000BF93EF93FF938EE592E0C2DEFF91EF911E
:1007E000BF91AF919F918F917F916F915F914F9149
:1007F0003F912F910F900BBE0F900FBE0F901F9047
:1008000018958EE592E033DE21E0892B09F420E093
:10081000822F0895EEE5F2E01382128288EE93E0D3
:10082000A0E0B0E084839583A683B78380E492E060
:100830009183808385EC90E09587848784EC90E0B9
:100840009787868780EC90E0918B808B81EC90E09D
:10085000938B828B82EC90E0958B848B86EC90E07E
:10086000978B868B118E128E138E148E0895089599
:100870007BD2FDDF69DCC4E7D2E06EDC2097E9F3D0
:1008800033DEFBCFCF92DF92EF92FF920F931F9355
:10089000CF93DF936C017A018B01C0E0D0E0CE15DD
:1008A000DF0581F0D8016D918D01D601ED91FC91AC
:1008B0000190F081E02DC6011995892B11F0219648
:1008C000EECF7E01C701DF91CF911F910F91FF9075
:1008D000EF90DF90CF9008956115710579F0FB01DD
:1008E00001900020E9F73197AF01461B570BDC015F
:1008F000ED91FC910280F381E02D199480E090E06D
:100900000895EACFDC01ED91FC910190F081E02D9A
:1009100019946EE472E0E0CF8F929F92AF92BF92F3
:10092000EF92FF920F931F93CF93DF93CDB7DEB774
:10093000A1970FB6F894DEBF0FBECDBF7C01FA01C0
:10094000CB0119A2223008F42AE08E010F5D1F4F5F
:10095000822E912CA12CB12CBF01A5019401CBD3E7
:10096000F901CA01015011096A3010F4605D01C03B
:10097000695CD8016C93232B242B252B69F7B801D4
:10098000C701AADFA1960FB6F894DEBF0FBECDBF98
:10099000DF91CF911F910F91FF90EF90BF90AF909B
:1009A0009F908F9008952115310541F4DC01ED9160
:1009B000FC910190F081E02D642F1994ADCF9A0144
:1009C000462F50E060E070E0EECF9A01AB0160E0AE
:1009D00070E0E9CFCF92DF92EF92FF920F931F93D7
:1009E000CF93DF932115310581F4DC01ED91FC916A
:1009F0000190F081E02D642FDF91CF911F910F9135
:100A0000FF90EF90DF90CF9019942A303105F1F4E8
:100A100077FF1BC06A017B01EC016DE273DF8C0183
:100A200044275527BA014C195D096E097F092AE050
:100A3000CE0172DF800F911FDF91CF911F910F9137
:100A4000FF90EF90DF90CF9008952AE0DF91CF9153
:100A50001F910F91FF90EF90DF90CF905DCF9A01A3
:100A6000AB01770F660B770BB5CF7F928F929F927A
:100A7000AF92BF92CF92DF92EF92FF920F931F93AC
:100A8000CF93DF938C016A017B01722E9A01AB0137
:100A9000C701B6012CD3882319F061E572E024C0A8
:100AA00046015701E894B7F82FEF3FEF4FE75FE7B4
:100AB000C501B4011CD381110CC02FEF3FEF4FE7EC
:100AC0005FE7C501B401B3D118161CF465E572E007
:100AD0000BC02FEF3FEF4FE75FE4C701B601A0D295
:100AE00018168CF469E572E0C801DF91CF911F916F
:100AF0000F91FF90EF90DF90CF90BF90AF909F90BD
:100B00008F907F90E9CE2FEF3FEF4FE75FECC7016B
:100B1000B6018DD187FDE6CF20E030E0A901C70105
:100B2000B60185D187FF09C06DE2C801EBDEEC019B
:100B3000F7FAF094F7F8F09402C0C0E0D0E0B12CDE
:100B400060E070E080E09FE37B1439F020E030E06B
:100B500040E251E470D1B394F7CFA7019601D2DB04
:100B60006B017C01D0D14B015C012AE0AB01BC01DF
:100B7000C801D2DEC80FD91F772079F1C501B401B1
:100B8000EED19B01AC01C701B601BBDB6B017C015F
:100B90006EE2C801B7DEC80FD91F20E030E040E2A6
:100BA00051E4C701B60140D24B015C01ACD16B01ED
:100BB0007C014AE050E0C80108DFC80FD91FB60128
:100BC00080E090E0CCD19B01AC01C501B40199DB80
:100BD0006B017C017A947110E0CFCE01DF91CF914F
:100BE0001F910F91FF90EF90DF90CF90BF90AF904B
:100BF0009F908F907F9008950F931F93CF93DF93D3
:100C0000EC0133DF8C01CE0184DE800F911FDF9178
:100C1000CF911F910F9108951F920F920FB60F92CF
:100C200011242F933F938F939F93AF93BF93809102
:100C3000FC029091FD02A091FE02B091FF02309162
:100C4000FB0223E0230F2D3720F40196A11DB11DD7
:100C500005C026E8230F0296A11DB11D2093FB02BB
:100C60008093FC029093FD02A093FE02B093FF02DA
:100C70008091000390910103A0910203B0910303BE
:100C80000196A11DB11D8093000390930103A093D1
:100C90000203B0930303BF91AF919F918F913F9156
:100CA0002F910F900FBE0F901F9018953FB7F8949B
:100CB0008091000390910103A0910203B09103037E
:100CC00026B5A89B05C02F3F19F00196A11DB11DA7
:100CD0003FBFBA2FA92F982F8827820F911DA11DE2
:100CE000B11DBC01CD0142E0660F771F881F991F1F
:100CF0004A95D1F708958F929F92AF92BF92CF926B
:100D0000DF92EF92FF926B017C01D0DF4B015C011F
:100D1000C114D104E104F104F1F088D0C7DFDC0193
:100D2000CB0188199909AA09BB09883E9340A105FE
:100D3000B10570F321E0C21AD108E108F10888EE8C
:100D4000880E83E0981EA11CB11CC114D104E104DB
:100D5000F10421F7DDCFFF90EF90DF90CF90BF90AF
:100D6000AF909F908F900895789484B5826084BDF1
:100D700084B5816084BD85B5826085BD85B581609F
:100D800085BDEEE6F0E0808181608083E1E8F0E0FF
:100D90001082808182608083808181608083E0E82E
:100DA000F0E0808181608083E1EBF0E0808184600D
:100DB0008083E0EBF0E0808181608083E1E9F0E016
:100DC000808182608083808181608083E0E9F0E0BF
:100DD000808181608083E1EAF0E0808182608083AD
:100DE000808181608083E0EAF0E08081816080839F
:100DF000E1E2F1E080818260808380818160808394
:100E0000E0E2F1E0808181608083EAE7F0E08081C8
:100E10008460808380818260808380818160808320
:100E20008081806880831092C10008950895D4D095
:100E300008F481E008950CD0E0CAD8DA40F0CFDAA7
:100E400030F021F45F3F19F0C1CA51110ACBC4CA76
:100E5000E5DA98F39923C9F35523B1F3951B550BA4
:100E6000BB27AA2762177307840738F09F5F5F4F7D
:100E7000220F331F441FAA1FA9F333D00E2E3AF0BE
:100E8000E0E830D091505040E695001CCAF729D0D8
:100E9000FE2F27D0660F771F881FBB1F2617370727
:100EA0004807AB07B0E809F0BB0B802DBF01FF2757
:100EB00093585F4F2AF09E3F510568F087CAD1CA08
:100EC0005F3FECF3983EDCF3869577956795B79591
:100ED000F7959F5FC9F7880F911D9695879597F9AC
:100EE0000895E1E0660F771F881FBB1F6217730725
:100EF0008407BA0720F0621B730B840BBA0BEE1F3A
:100F000088F7E095089592DA88F09F5790F0B92F0E
:100F10009927B751A0F0D1F0660F771F881F991F4E
:100F20001AF0BA95C9F712C0B13081F099DAB1E080
:100F3000089596CA672F782F8827B85F39F0B93F90
:100F4000CCF3869577956795B395D9F73EF4909550
:100F50008095709561957F4F8F4F9F4F0895E894CE
:100F600009C097FB3EF490958095709561957F4FF1
:100F70008F4F9F4F9923A9F0F92F96E9BB2793959F
:100F8000F695879577956795B795F111F8CFFAF4AF
:100F9000BB0F11F460FF1BC06F5F7F4F8F4F9F4FE0
:100FA00016C0882311F096E911C0772321F09EE83E
:100FB000872F762F05C0662371F096E8862F70E0A4
:100FC00060E02AF09A95660F771F881FDAF7880F7E
:100FD0009695879597F90895990F0008550FAA0BD4
:100FE000E0E8FEEF16161706E807F907C0F012163C
:100FF0001306E407F50798F0621B730B840B950B3F
:1010000039F40A2661F0232B242B252B21F4089593
:101010000A2609F4A140A6958FEF811D811D089530
:10102000DBDF08F48FEF08950BD0E7C9D8D928F09B
:10103000DDD918F0952309F0C9C9CEC9112411CA08
:10104000EDD9A0F3959FD1F3950F50E0551F629F06
:10105000F001729FBB27F00DB11D639FAA27F00D11
:10106000B11DAA1F649F6627B00DA11D661F829F38
:101070002227B00DA11D621F739FB00DA11D621F1D
:10108000839FA00D611D221F749F3327A00D611D3A
:10109000231F849F600D211D822F762F6A2F11241C
:1010A0009F5750408AF0E1F088234AF0EE0FFF1F6F
:1010B000BB1F661F771F881F91505040A9F79E3FA6
:1010C000510570F083C9CDC95F3FECF3983EDCF366
:1010D000869577956795B795F795E7959F5FC1F7E3
:1010E000FE2B880F911D9695879597F9089574DFCB
:1010F000880B990B0895A1E21A2EAA1BBB1BFD01B8
:101100000DC0AA1FBB1FEE1FFF1FA217B307E407E6
:10111000F50720F0A21BB30BE40BF50B661F771F3E
:10112000881F991F1A9469F760957095809590951E
:101130009B01AC01BD01CF010895EE0FFF1F881F79
:0E1140008BBF0790F691E02D1994F894FFCF25
:10114E00000082424100414163687256616C7565D0
:10115E003A202020006279746556616C75653A20DC
:10116E002000696E7456616C75653A202020006609
:10117E006C6F617456616C75653A2000000000005A
:10118E00D202420465021E033702510243020D0AC7
:0E119E00006E616E00696E66006F766600007E
:00000001FF
