:1000000007C1000033C1000031C100002FC1000052
:100010002DC100002BC1000029C1000027C1000034
:1000200025C1000023C1000021C100001FC1000044
:100030001DC100001BC1000019C1000017C1000054
:1000400015C1000013C1000011C100000FC1000064
:100050000DC100000BC1000009C1000016C5000061
:1000600005C1000048C400007CC40000FFC00000BF
:10007000FDC00000FBC00000F9C00000F7C0000098
:10008000F5C00000F3C00000F1C00000EFC00000A8
:10009000EDC00000EBC00000E9C00000E7C00000B8
:1000A000E5C00000E3C00000E1C00000DFC00000C8
:1000B000DDC00000DBC00000D9C00000D7C00000D8
:1000C000D5C00000D3C00000D1C00000CFC00000E8
:1000D000CDC00000CBC00000C9C00000C7C00000F8
:1000E000C5C0000069066C065B065F066506A306D0
:1000F000700674067A067E06820688068C069006CE
:10010000A30696069A069E0600000A0B02090C0D2D
:100110000E080703040100000000000000000000BA
:1001200000000000000000000000000000000000CF
:10013000000000001211100000000000000000008C
:1001400000000000000000000000000000000102AC
:1001500010202008081020401020408002010201D9
:100160000804020101020408102040808040201091
:1001700008040201800402018040201008040201EA
:100180000804020101020408102040800102040852
:10019000102040800505050507050808080802022B
:1001A00002020A0A08080404040401010101010111
:1001B00001010303030303030303040707070C0CF4
:1001C0000C0C0C0C0C0C02020202060606060606BB
:1001D00006060B0B0B0B0B0B0B0B00002200250074
:1001E00028002B002E003100340002010000050120
:1001F00008010B0100002100240027002A002D0027
:100200003000330001010000040107010A01E3048A
:1002100011241FBECFEFD1E2DEBFCDBF00E00CBF87
:1002200012E0A0E0B2E0E6E7FEE000E00BBF02C0B3
:1002300007900D92A431B107D9F722E0A4E1B2E012
:1002400001C01D92AC3BB207E1F711E0C8E0D1E07C
:1002500000E005C021970109802FFE0102D6C730BA
:10026000D10780E00807B1F7DCD303C6C9CECF932E
:10027000DF9300D000D0CDB7DEB79A8389834B835C
:100280005C836D837E838B819C81AD81BE81E9819E
:10029000FA8126E0AC01BD01CF01CAD2000026964A
:1002A0000FB6F894DEBF0FBECDBFDF91CF9108959A
:1002B000CF93DF931F921F92CDB7DEB79A838983C6
:1002C00081E00F900F90DF91CF910895CF93DF934E
:1002D000CDB7DEB786E192E0EBDF982F81E089278A
:1002E000882309F0F7CF40E052EC61E070E086E14E
:1002F00092E0BDDF809100029091010261E024D57F
:100300000000DF91CF910895CF93DF9300D01F922B
:10031000CDB7DEB78091140290911502C097092ED7
:10032000000CAA0BBB0BBC01CD018CD0DC01CB01B6
:100330002DEC3CEC4CEC5DE3BC01CD01E7D0DC01E5
:10034000CB0120E030E04AE754E4BC01CD01DED02F
:10035000DC01CB0189839A83AB83BC83809100024B
:100360009091010261E02CD569817A818B819C8119
:100370003BD0DC01CB01BC01CD01F6D38091000262
:100380009091010260E01CD569817A818B819C810A
:100390002BD0DC01CB01BC01CD01E6D300000F90D6
:1003A0000F900F900F90DF91CF910895CF93DF932F
:1003B000CDB7DEB786E192E04ED1909315028093DF
:1003C000140280911402909115020A9734F48091DE
:1003D00014029091150299231CF480E090E049D515
:1003E0000000DF91CF91089570D088F09F5790F072
:1003F000B92F9927B751A0F0D1F0660F771F881F4A
:10040000991F1AF0BA95C9F712C0B13081F077D0B0
:10041000B1E0089574C0672F782F8827B85F39F04E
:10042000B93FCCF3869577956795B395D9F73EF4A8
:1004300090958095709561957F4F8F4F9F4F089550
:10044000E89409C097FB3EF490958095709561956E
:100450007F4F8F4F9F4F9923A9F0F92F96E9BB2724
:100460009395F695879577956795B795F111F8CFA0
:10047000FAF4BB0F11F460FF1BC06F5F7F4F8F4F0B
:100480009F4F16C0882311F096E911C0772321F001
:100490009EE8872F762F05C0662371F096E8862F99
:1004A00070E060E02AF09A95660F771F881FDAF7F0
:1004B000880F9695879597F9089557FD9058440FA2
:1004C000551F59F05F3F71F04795880F97FB991FB3
:1004D00061F09F3F79F08795089512161306140670
:1004E000551FF2CF4695F1DF08C0161617061806FD
:1004F000991FF1CF86957105610508940895E894D8
:10050000BB2766277727CB0197F908950BD078C0D2
:1005100069D028F06ED018F0952309F05AC05FC05A
:100520001124EECFCADFA0F3959FD1F3950F50E0D1
:10053000551F629FF001729FBB27F00DB11D639F95
:10054000AA27F00DB11DAA1F649F6627B00DA11D3B
:10055000661F829F2227B00DA11D621F739FB00DE1
:10056000A11D621F839FA00D611D221F749F332751
:10057000A00D611D231F849F600D211D822F762FEA
:100580006A2F11249F5750408AF0E1F088234AF0E7
:10059000EE0FFF1FBB1F661F771F881F9150504033
:1005A000A9F79E3F510570F014C0AACF5F3FECF34E
:1005B000983EDCF3869577956795B795F795E7951F
:1005C0009F5FC1F7FE2B880F911D9695879597F930
:1005D000089597F99F6780E870E060E008959FEFC5
:1005E00080EC089500240A941616170618060906CA
:1005F000089500240A941216130614060506089599
:10060000092E0394000C11F4882352F0BB0F40F420
:10061000BF2B11F460FF04C06F5F7F4F8F4F9F4F60
:100620000895FC01918D228D892F90E0805C9F4F71
:10063000821B91098F7399270895FC01918D828DFA
:10064000981731F0828DE80FF11D858D90E00895A7
:100650008FEF9FEF0895FC01918D828D981761F0C7
:10066000828DDF01A80FB11D5D968C91928D9F5FE9
:100670009F73928F90E008958FEF9FEF0895FC0194
:10068000538D448D252F30E0842F90E0821B930BF7
:10069000541710F0CF960895019708958AED94E0CD
:1006A000892B39F086ED91E0892B19F083D18111E6
:1006B00025C080E090E0892B41F080E090E0892B1C
:1006C00021F00E94000081111BC080E090E0892B86
:1006D00041F080E090E0892B21F00E940000811120
:1006E00012C080E090E0892B99F080E090E0892BA7
:1006F00079F00E940000811109C0089557DED9CF1A
:100700000E940000E2CF0E940000EBCF0C9400009A
:100710000895FC01848DDF01A80FB11DA35ABF4FBE
:100720002C91848D90E001968F739927848FA689F0
:10073000B7892C93A089B1898C91837080648C9344
:10074000938D848D981306C00288F389E02D8081F3
:100750008F7D80830895EF92FF920F931F93CF9325
:10076000DF93EC0181E0888F9B8D8C8D981305C001
:10077000E889F989808185FD25C0F62E0B8D10E072
:100780000F5F1F4F0F731127E02E8C8DE8120BC0E7
:100790000FB607FCFACFE889F989808185FFF5CF8C
:1007A000CE01B7DFF2CF8B8DFE01E80FF11DE35ACA
:1007B000FF4FF0829FB7F8940B8FEA89FB89808105
:1007C00080620AC09FB7F894EE89FF896083E88948
:1007D000F98980818370806480839FBF81E090E08D
:1007E000DF91CF911F910F91FF90EF900895CF93DC
:1007F000DF93EC01888D8823C1F0EA89FB89808131
:1008000085FD05C0A889B9898C9186FD0EC00FB6FB
:1008100007FCF5CF808185FFF2CFA889B9898C913B
:1008200085FFEDCFCE0175DFE8CFDF91CF91089541
:10083000CF92DF92EF92FF921F93CF93DF93EC0161
:100840006A017B01122FE889F98982E080834115D2
:10085000514E61057105A9F060E079E08DE390E00B
:10086000A7019601DCD2DA01C9010197A109B109FA
:10087000B695A795979587959C01211580E1380736
:10088000A0F0E889F989108260E874E88EE190E0D0
:10089000A7019601C4D2DA01C9010197A109B109E2
:1008A000B695A795979587959C01EC85FD85308336
:1008B000EE85FF852083188EEC89FD891083EA89F7
:1008C000FB89808180618083EA89FB8980818860DF
:1008D0008083EA89FB89808180688083EA89FB893B
:1008E00080818F7D8083DF91CF911F91FF90EF906A
:1008F000DF90CF9008951F920F920FB60F921124A0
:100900000BB60F922F938F939F93EF93FF93E091EA
:100910002602F09127028081E0912C02F0912D02B5
:1009200082FD12C0908180912F028F5F8F73209182
:100930003002821751F0E0912F02F0E0EA5EFD4FA5
:10094000958F80932F0201C08081FF91EF919F913D
:100950008F912F910F900BBE0F900FBE0F901F9095
:1009600018951F920F920FB60F9211240BB60F928B
:100970002F933F934F935F936F937F938F939F93A7
:10098000AF93BF93EF93FF9386E192E0C2DEFF91B6
:10099000EF91BF91AF919F918F917F916F915F91F7
:1009A0004F913F912F910F900BBE0F900FBE0F9064
:1009B0001F90189586E192E034DE21E0892B09F43E
:1009C00020E0822F0895E6E1F2E01382128288EEA1
:1009D00093E0A0E0B0E084839583A683B78386E0AC
:1009E00092E09183808385EC90E09587848784EC06
:1009F00090E09787868780EC90E0918B808B81ECEC
:100A000090E0938B828B82EC90E0958B848B86ECCC
:100A100090E0978B868B118E128E138E148E089514
:100A20000895DBD0FDDF52DCCEE4D3E06DDC20970F
:100A3000E9F334DEFBCFCF92DF92EF92FF920F9378
:100A40001F93CF93DF936C017A018B01C0E0D0E05C
:100A5000CE15DF0581F0D8016D918D01D601ED91A4
:100A6000FC910190F081E02DC6011995892B11F0C0
:100A70002196EECF7E01C701DF91CF911F910F919B
:100A8000FF90EF90DF90CF9008951F920F920FB6D6
:100A90000F9211242F933F938F939F93AF93BF9304
:100AA0008091B4029091B502A091B602B091B702C4
:100AB0003091B30223E0230F2D3720F40196A11DBE
:100AC000B11D05C026E8230F0296A11DB11D20937C
:100AD000B3028093B4029093B502A093B602B09390
:100AE000B7028091B8029091B902A091BA02B09178
:100AF000BB020196A11DB11D8093B8029093B9026B
:100B0000A093BA02B093BB02BF91AF919F918F9116
:100B10003F912F910F900FBE0F901F9018953FB7E8
:100B2000F8948091B8029091B902A091BA02B09164
:100B3000BB0226B5A89B05C02F3F19F00196A11D49
:100B4000B11D3FBFBA2FA92F982F8827820F911D63
:100B5000A11DB11DBC01CD0142E0660F771F881FAA
:100B6000991F4A95D1F708958F929F92AF92BF92A5
:100B7000CF92DF92EF92FF926B017C01D0DF4B01AD
:100B80005C01C114D104E104F104F1F047D1C7DFE5
:100B9000DC01CB0188199909AA09BB09883E934059
:100BA000A105B10570F321E0C21AD108E108F108EE
:100BB00088EE880E83E0981EA11CB11CC114D104DC
:100BC000E104F10421F7DDCFFF90EF90DF90CF90AB
:100BD000BF90AF909F908F900895789484B5826075
:100BE00084BD84B5816084BD85B5826085BD85B5D1
:100BF000816085BDEEE6F0E0808181608083E1E880
:100C0000F0E01082808182608083808181608083B7
:100C1000E0E8F0E0808181608083E1EBF0E08081BA
:100C200084608083E0EBF0E0808181608083E1E993
:100C3000F0E0808182608083808181608083E0E950
:100C4000F0E0808181608083E1EAF0E08081826071
:100C50008083808181608083E0EAF0E08081816030
:100C60008083E1E2F1E08081826080838081816025
:100C70008083E0E2F1E0808181608083EAE7F0E058
:100C800080818460808380818260808380818160B4
:100C900080838081806880831092C100089590E0F5
:100CA000FC013197E231F10508F04DC08827EE587C
:100CB000FF4F8F4FD6C0809180008F7703C0809107
:100CC00080008F7D80938000089580918000877FD1
:100CD000F9CF84B58F7702C084B58F7D84BD089528
:100CE0008091B0008F7703C08091B0008F7D80939A
:100CF000B0000895809190008F7707C08091900098
:100D00008F7D03C080919000877F8093900008952D
:100D10008091A0008F7707C08091A0008F7D03C0D5
:100D20008091A000877F8093A0000895809120018A
:100D30008F7707C0809120018F7D03C080912001B3
:100D4000877F809320010895CF93DF9390E0FC018B
:100D5000E25BFE4F2491FC01EC56FE4F8491882308
:100D600061F190E0880F991FFC01EC50FE4FC59196
:100D7000D491FC01E652FE4FA591B491611109C0D6
:100D80009FB7F8948881209582238883EC912E2345
:100D90000BC0623061F49FB7F8948881322F309590
:100DA00083238883EC912E2B2C939FBF06C08FB793
:100DB000F894E8812E2B28838FBFDF91CF9108957F
:100DC0001F93CF93DF93282F30E0F901E85FFE4FA8
:100DD0008491F901E25BFE4FD491F901EC56FE4F8C
:100DE000C491CC23B9F0162F811159DFEC2FF0E01C
:100DF000EE0FFF1FE652FE4FA591B4919FB7F894F6
:100E0000111104C08C91D095D82302C0EC91DE2B37
:100E1000DC939FBFDF91CF911F9108950895A1E2C8
:100E20001A2EAA1BBB1BFD010DC0AA1FBB1FEE1F64
:100E3000FF1FA217B307E407F50720F0A21BB30BAF
:100E4000E40BF50B661F771F881F991F1A9469F72B
:100E500060957095809590959B01AC01BD01CF0187
:100E60000895EE0FFF1F881F8BBF0790F691E02DAE
:060E70001994F894FFCF75
:100E76000B0000000000AB031B053F03F703110343
:040E86002B031D031A
:00000001FF
